:1000000072C000009EC000009CC000009AC00000AA
:1000100098C0000096C0000094C0000092C000008C
:1000200090C000008EC000008CC000008AC000009C
:1000300088C0000086C0000084C0000082C00000AC
:1000400080C000007EC000007CC000007AC00000BC
:1000500078C0000076C0000074C000008AC20000B2
:1000600070C0000050C2000025C200006AC000003D
:1000700068C0000066C0000064C0000062C00000EC
:1000800060C000005EC000005CC000005AC00000FC
:1000900058C0000056C0000054C0000052C000000C
:1000A00050C000004EC000004CC000004AC000001C
:1000B00048C0000046C0000044C0000042C000002C
:1000C00040C000003EC000003CC00000BDC10000B8
:1000D00092C1000036C0000034C0000032C00000F1
:1000E00030C00000030311241FBECFEFD1E2DEBFFA
:1000F000CDBF00E00CBF12E0A0E0B2E0ECE2FDE01A
:1001000000E00BBF02C007900D92A631B107D9F7EE
:100110002CE0A6E1B2E001C01D92A132B207E1F7E6
:1001200010E0C3E7D0E000E005C021970109802F6F
:10013000FE01F2D5C237D10780E00807B1F7B6D289
:10014000F3C55ECFAF92BF92CF92DF92EF92FF9254
:100150000F931F93CF93DF936C017B018B01040FEF
:10016000151FEB015E01AE18BF08C017D10759F08B
:100170006991D601ED91FC910190F081E02DC601CD
:100180001995892B79F7C501DF91CF911F910F91B7
:10019000FF90EF90DF90CF90BF90AF900895FC015B
:1001A000538D448D252F30E0842F90E0821B930BDC
:1001B000541710F0CF96089501970895FC01918D82
:1001C000828D981761F0A28DAE0FBF2FB11D5D9685
:1001D0008C91928D9F5F9F73928F90E008958FEF27
:1001E0009FEF0895FC01918D828D981731F0828DDB
:1001F000E80FF11D858D90E008958FEF9FEF089532
:10020000FC01918D228D892F90E0805C9F4F821B95
:1002100091098F739927089587EE9AE0F1DF21E025
:10022000892B09F420E0822F089584E89BE0E8DF21
:1002300021E0892B09F420E0822F0895FC01A48D90
:10024000A80FB92FB11DA35ABF4F2C91848D90E0F8
:1002500001968F739927848FA689B7892C93A089DB
:10026000B1898C91837080648C93938D848D981365
:1002700006C00288F389E02D80818F7D80830895F8
:10028000EF92FF920F931F93CF93DF93EC0181E0E6
:10029000888F9B8D8C8D98131AC0E889F98980818D
:1002A00085FF15C09FB7F894EE89FF896083E889C0
:1002B000F98980818370806480839FBF81E090E0B2
:1002C000DF91CF911F910F91FF90EF900895F62E3F
:1002D0000B8D10E00F5F1F4F0F731127E02E8C8DD9
:1002E0008E110BC00FB607FCFACFE889F98980811F
:1002F00085FFF5CFCE01A2DFF2CFEB8DEC0FFD2F06
:10030000F11DE35AFF4FF0829FB7F8940B8FEA89F3
:10031000FB8980818062D0CFCF93DF93EC01888D01
:100320008823B1F0AA89BB89E889F9898C9185FD78
:1003300003C0808186FD0CC00FB607FCF7CF8C91FF
:1003400085FFF2CF808185FFEDCFCE0177DFEACF49
:10035000DF91CF91089580E090E0892B21F065DF57
:1003600081110E94000080E090E0892B49F080E03C
:1003700090E0892B29F00E94000081110E9400006A
:1003800080E090E0892B21F047DF81110E9400007E
:1003900080E090E0892B49F080E090E0892B29F003
:1003A0000E94000081110C94000008953FB7F8945A
:1003B0008091170290911802A0911902B0911A022F
:1003C00026B5A89B05C02F3F19F00196A11DB11DB0
:1003D0003FBFBA2FA92F982F8827BC01CD01620FEC
:1003E000711D811D911D42E0660F771F881F991FA7
:1003F0004A95D1F708951F920F920FB60F921124CC
:100400000BB60F922F933F934F935F936F937F930E
:100410008F939F93AF93BF93EF93FF9387EE9AE0F1
:100420000DDFFF91EF91BF91AF919F918F917F91E0
:100430006F915F914F913F912F910F900BBE0F9055
:100440000FBE0F901F9018951F920F920FB60F922C
:1004500011240BB60F922F938F939F93EF93FF93DB
:10046000E091F70AF091F80A8081E091FD0AF0919D
:10047000FE0A82FD1DC090818091000B8F5F8F73FB
:100480002091010B821741F0E091000BF0E0E9515F
:10049000F54F958F8093000BFF91EF919F918F9176
:1004A0002F910F900BBE0F900FBE0F901F901895BD
:1004B0008081F2CF1F920F920FB60F9211240BB6CC
:1004C0000F922F933F934F935F936F937F938F93ED
:1004D0009F93AF93BF93EF93FF9384E89BE0AEDECF
:1004E000FF91EF91BF91AF919F918F917F916F910C
:1004F0005F914F913F912F910F900BBE0F900FBEC8
:100500000F901F9018951F920F920FB60F92112403
:100510000BB60F922F938F939F93EF93FF93E091DE
:10052000940BF091950B8081E0919A0BF0919B0BCD
:1005300082FD1DC0908180919D0B8F5F8F732091F4
:100540009E0B821741F0E0919D0BF0E0EC57F44FC9
:10055000958F80939D0BFF91EF919F918F912F919C
:100560000F900BBE0F900FBE0F901F9018958081BB
:10057000F2CF1F920F920FB60F9211242F933F9339
:100580008F939F93AF93BF9380911B0290911C0216
:10059000A0911D02B0911E023091160223E0230F9C
:1005A0002D3758F50196A11DB11D20931602809399
:1005B0001B0290931C02A0931D02B0931E02809117
:1005C000170290911802A0911902B0911A02019697
:1005D000A11DB11D8093170290931802A0931902D8
:1005E000B0931A02BF91AF919F918F913F912F913C
:1005F0000F900FBE0F901F90189526E8230F0296BC
:10060000A11DB11DD2CFE7EEFAE01382128248EEAF
:1006100053E060E070E0448355836683778384E031
:1006200092E09183808325ED30E03587248724EDA7
:1006300030E03787268720ED30E0318B208B21EDAD
:1006400030E0338B228B22ED30E0358B248B26ED8E
:1006500030E0378B268B118E128E138E148EE4E8C9
:10066000FBE01382128244835583668377839183F0
:10067000808385EC90E09587848784EC90E0978771
:10068000868780EC90E0918B808B81EC90E0938B5F
:10069000828B82EC90E0958B848B86EC90E0978B3C
:1006A000868B118E128E138E148E0895CF93DF9346
:1006B000CDB7DEB7A1970FB6F894DEBF0FBECDBFA2
:1006C000789484B5826084BD84B5816084BD85B52D
:1006D000826085BD85B5816085BD80916E00816039
:1006E00080936E00109281008091810082608093DF
:1006F00081008091810081608093810080918000E1
:100700008160809380008091B10084608093B1000B
:100710008091B00081608093B000809191008260F0
:1007200080939100809191008160809391008091ED
:1007300090008160809390008091A10082608093FE
:10074000A1008091A10081608093A1008091A00010
:1007500081608093A00080912101826080932101BB
:10076000809121018160809321018091200181602D
:100770008093200180917A00846080937A00809138
:100780007A00826080937A0080917A008160809301
:100790007A0080917A00806880937A001092C1007C
:1007A000E091940BF091950B22E02083E091900B67
:1007B000F091910B1082E091920BF091930B8FECE2
:1007C000808310929C0BE091980BF091990B96E02E
:1007D0009083E091960BF091970B808180618083EC
:1007E000E091960BF091970B808188608083E09177
:1007F000960BF091970B808180688083E091960B37
:10080000F091970B80818F7D8083E091F70AF091C2
:10081000F80A2083E091F30AF091F40A1082E09143
:10082000F50AF091F60A88E080831092FF0AE091C1
:10083000FB0AF091FC0A9083E091F90AF091FA0A20
:10084000808180618083E091F90AF091FA0A8081C9
:1008500088608083E091F90AF091FA0A80818068CB
:100860008083E091F90AF091FA0A80818F7D80837C
:100870001092630210926402109265021092660256
:100880008BED9FE0A9ECB0E480936702909368023F
:10089000A0936902B0936A0285E39AEFAEE8BCE3E5
:1008A00080936B0290936C02A0936D02B0936E02E2
:1008B0008FE892ECA5EFBDE380936F0290937002F6
:1008C000A0937102B093720280E090E0A0E6B0E4E1
:1008D0008093730290937402A0937502B093760292
:1008E0001092270210925402109253021092560254
:1008F000109255021092570210925802109259020B
:1009000010925A0210925F021092600210926102DD
:1009100010926202E7E7F2E087EE9AE0118210821D
:100920001382128236968E179F07C1F71092280203
:10093000E9E2F2E0119202E0E335F007D9F736DDA3
:100940004B015C0154E6C52ED12CE12CF12C2EDD9F
:10095000681979098A099B09683E734081059105E8
:10096000B0F311E0C11AD108E108F10828EE820EB7
:1009700023E0921EA11CB11CC114D104E104F104B6
:1009800031F741E050E062E172E087EE9AE0DADBB5
:1009900087E6282E332433949BE4492E92E0592E87
:1009A0002CE3622E712C3CE3C32ED12CE12CF12CD4
:1009B0004AE0842E912CA12CB12C84E89BE020DC11
:1009C000892B39F084E89BE0F9DB682F87EE9AE009
:1009D00057DC87EE9AE014DC181619060CF064C197
:1009E00087EE9AE0EBDB982F2FB7F89440911B022B
:1009F00050911C0260911D0270911E022FBF009148
:100A00002302109124022091250230912602401BDE
:100A1000510B620B730B483E53406105710518F191
:100A20002FB7F89440911B0250911C0260911D0257
:100A300070911E022FBF40932302509324026093B3
:100A400025027093260210922702109254021092EF
:100A500053021092280210925602109255021092E0
:100A6000290210922A0220912702222309F4ACC005
:100A7000213009F0AECFE091280281E08E0F809303
:100A80002802F0E0E95DFD4F92838A3208F4A1CF9D
:100A900040912B0250912C02052E000C660B770B17
:100AA00080915B0290915C02A0915D02B0915E0228
:100AB0008A019B01080F191F2A1F3B1FC901B8019A
:100AC00060935B0270935C0280935D0290935E0280
:100AD0002091530230915402A101421B530B9A0101
:100AE00056E0529FD001539FB00D1124A958BD4F1D
:100AF000E7E2F2E03781268113963C932E9312971A
:100B00002085318511963C932E9322853385159649
:100B10003C932E931497369616974E165F0651F710
:100B2000009155021091560220E00B33110561F43B
:100B3000A7019601CFD020935702309358024093DB
:100B4000590250935A0221E0C8010196B301AED078
:100B50009093560280935502109227021092280219
:100B60001092290210922A02222309F432CF2091F6
:100B70007D0230917E0250E040E019A28E010F5DAF
:100B80001F4FCA01B901A5019401A4D0605DF8010D
:100B900062938F01211531054105510591F7309779
:100BA00059F001900020E9F73197AF01401B510B3C
:100BB000B80184E89BE0C6DA41E050E064E172E00D
:100BC00084E89BE0BFDA05CF20912802222309F4B4
:100BD00065C090932A02309129023A3F09F059C02A
:100BE0004091550250915602BA0160567F4F8617C8
:100BF000170609F04EC0F6E0F49FB001F59F700DA6
:100C0000112470935402609353022F5F20932802A3
:100C100001E000932702903A09F0DBCE10925B02CC
:100C200010925C0210925D0210925E022FB7F8944F
:100C300080911B0290911C02A0911D02B0911E0296
:100C40002FBF40911F0250912002609121027091AC
:100C50002202841B950BA60BB70B80935F02909327
:100C60006002A0936102B09362022FB7F894809162
:100C70001B0290911C02A0911D02B0911E022FBF79
:100C800080931F0290932002A0932102B09322022E
:100C9000A0CE9093290210922A029BCE9093290213
:100CA00011E01093280295CE56DB87CEAA1BBB1B02
:100CB00051E107C0AA1FBB1FA617B70710F0A61B5C
:100CC000B70B881F991F5A95A9F780959095BC017D
:100CD000CD010895A1E21A2EAA1BBB1BFD010DC078
:100CE000AA1FBB1FEE1FFF1FA217B307E407F507DC
:100CF00020F0A21BB30BE40BF50B661F771F881FB8
:100D0000991F1A9469F760957095809590959B014D
:100D1000AC01BD01CF010895EE0FFF1F881F8BBFEF
:0C0D20000790F691E02D1994F894FFCF95
:100D2C00000000004001A200CF008C010001DE0099
:060D3C00F200620020003D
:00000001FF
